:020000040800F2
:10000000F00A0020A5020008C5600008B93D0008FC
:10001000794F0008CD030008CD71000800000000F2
:100020000000000000000000000000000D65000856
:1000300091040008000000003561000865650008B3
:10004000BF020008BF020008BF020008BF0200088C
:10005000BF020008BF020008BF020008BF0200087C
:10006000BF020008BF020008BF020008D103000859
:10007000BF020008BF020008BF020008BF0200085C
:10008000BF02000800000000BF020008BF02000815
:10009000BF020008BF020008BF020008BF0200083C
:1000A000BF0200086967000859670008BF0200081E
:1000B000BF02000879670008BF020008BF020008FD
:1000C000BF020008BF020008BF020008BF0200080C
:1000D000BF020008BF020008BF020008BF020008FC
:1000E000BF020008BF020008BF020008BF020008EC
:1000F000BF020008BF020008BF02000800000000A5
:1001000000000000BF02000800000000BF0200085D
:10011000BF02000800000000896700089967000816
:10012000BF020008BF020008BF020008BF020008AB
:10013000BF0200080000000000000000BF0200082D
:10014000BF020008BF02000800000000000000001D
:10015000000000000000000000000000000000009F
:10016000000000000000000000000000BF020008C6
:10017000BF020008000000000000000000000000B6
:1001800000000000BF0200080000000000000000A6
:10019000000000000000000000000000000000005F
:1001A0000000000000000000BF020008BF020008BD
:1001B000BF020008BF020008BF02000800000000E4
:1001C00000000000BF020008000000000000000066
:1001D000BF020008BF02000800F002F800F052F869
:1001E00014A696E8000CB244B344DA4501D100F0FD
:1001F00049F8BAE80F000FA696E83000A5EB040511
:1002000004EB0607AAEB0704A7F101074FEA15154F
:100210004FEA3414A4F10104AC4201D300F032F8E7
:1002200013F0010F18BFFB1A43F0010300F001F8AF
:10023000DBE7184798BA0000B8BA0000103A24BFAC
:1002400078C878C1FAD8520724BF30C830C144BF3B
:1002500004680C6070470000704700000023002411
:1002600000250026103A28BF78C1FBD8520728BFC6
:1002700030C148BF0B6070471FB508F07EFA1FBD44
:1002800010B510BD00F06CF81146FFF7F5FF06F051
:10029000FFFF00F08AF803B4FFF7F2FF03BC00F0A1
:1002A0008DF800000948804709480047FEE7FEE74F
:1002B000FEE7FEE7FEE7FEE7FEE7FEE7FEE7FEE716
:1002C00004480549054A064B704700004567000889
:1002D000D9010008F0040020F00A0020F0060020F8
:1002E000F00600204FF0000200B5134694469646F3
:1002F000203922BFA0E80C50A0E80C50B1F1200139
:10030000BFF4F7AF090728BFA0E80C5048BF0CC0E6
:100310005DF804EB890028BF40F8042B08BF704744
:1003200048BF20F8022B11F0804F18BF00F8012BB6
:10033000704770477047704710B500F009F80068C3
:1003400010BD10B5044600F003F8046010BD0000B5
:1003500000487047F800002000487047F80000206F
:100360007546FFF7F9FFAE4605006946534620F093
:100370000700854618B020B5FFF7A2FFBDE8204072
:100380004FF000064FF000074FF000084FF0000B51
:10039000AC46ACE8C009ACE8C009ACE8C009ACE8C0
:1003A000C00921F007018D46704710B50446AFF330
:1003B00000802046BDE81040FFF76DBF01491820BE
:1003C000ABBEFEE72600020070470000FFE7FEE735
:1003D00080B540F22020C2F2000000F083FE80BD14
:1003E00084B003900398006840F20741C4F2020110
:1003F000884206D8FFE740F60000C4F202000090F1
:1004000005E040F62000C4F202000090FFE70098EB
:1004100002900398007808384CF6CD41CCF6CC41D8
:10042000A0FB011000090190029803994A6C22F088
:10043000030210448864039940F68000C4F202006D
:10044000C864019800F01F010120884003990865E5
:1004500004B0704782B00190019800790090009933
:1004600040F6FC00C4F2020000EB810001994865EF
:10047000019940F64010C4F20200886500980138E6
:1004800000F01F01012088400199C86502B0704743
:100490007047000080B584B0ADF80E00ADF80C10C8
:1004A0008DF80B20ADF80830002001909DF80B006E
:1004B0000090FFE701980099884200F38480FFE7ED
:1004C000BDF80E000099401ABDF80C10019A891A67
:1004D000BDF8082080B289B203F0C8FFBDF80E0055
:1004E00000990844BDF80C10019A891ABDF808203B
:1004F00080B289B203F0BAFFBDF80E000199401A2C
:10050000BDF80C10009A1144BDF8082080B289B2E1
:1005100003F0ACFFBDF80E000199401ABDF80C10B5
:10052000009A891ABDF8082080B289B203F09EFFB4
:10053000BDF80E0000990844BDF80C10019A114452
:10054000BDF8082080B289B203F090FFBDF80E001C
:1005500001990844BDF80C10009A891ABDF80820CA
:1005600080B289B203F082FFBDF80E000199084401
:10057000BDF80C10009A1144BDF8082080B289B271
:1005800003F074FFBDF80E000099401ABDF80C107E
:10059000019A1144BDF8082080B289B203F066FFC9
:1005A00001980130019001980099494300FB001027
:1005B0009DF80B104943884204DDFFE7009801389D
:1005C0000090FFE776E704B080BD00000000000067
:1005D00080B588B0FFE740F21800C2F20000006862
:1005E0000C2800F3D680FFE740F21800C2F20000AA
:1005F0000790006807F02DFE41EC100B51EC100B3A
:100600009FED650B53EC102B0493039207F04CFE07
:1006100041EC100B51EC100B9FED610B53EC102BC8
:100620000693059207F08AFC41EC100B06F01CFFC4
:1006300051EC100B9FED5C0B53EC102B07F034FECC
:1006400041EC100B51EC100B9FED590B53EC102BA0
:1006500007F0CCFB41EC100B51EC100B07F094FBB6
:100660000146079840F2E812C2F2000211600068E9
:1006700007F0EFFD039A049B41EC100B51EC100BBB
:1006800007F012FE059A069B41EC100B51EC100B83
:1006900007F054FC41EC100B06F082FE51EC100BFD
:1006A0009FED450B53EC102B07F0FEFD41EC100BBA
:1006B00051EC100B9FED420B53EC102B07F096FB07
:1006C00041EC100B51EC100B07F05EFB0146079854
:1006D00040F2F012C2F2000211600068092828DC22
:1006E000FFE740F2E810C2F2000090ED000ABDEE14
:1006F000C00A10EE100A40F2F011C2F2000191EDB2
:10070000000ABDEEC00A10EE101A40F21802C2F242
:1007100000021288EC460C23CCF808300023CCF8F9
:1007200004304FF6E073CCF80030012304F0F2F807
:1007300027E040F2E810C2F2000090ED000ABDEEA2
:10074000C00A10EE100A40F2F011C2F2000191ED61
:10075000000ABDEEC00A10EE101A40F21802C2F2F2
:1007600000021288EC460C23CCF808300023CCF8A9
:1007700004304FF6E073CCF80030022304F0CAF8DE
:10078000FFE740F21801C2F200010868013008607A
:1007900021E708B080BD00BF4AD8124DFB210940B7
:1007A0000000000000001840000000000000594058
:1007B000000000000080614000000000000059C0FF
:1007C0000000000000005E4010B590B040F2B04064
:1007D000C2F2000000680C2840F0BA80FFE740F247
:1007E000B041C2F200010020086040F2B440C2F201
:1007F0000000016801310160006849F69912C1F6F4
:1008000099124CF6CD41CCF6CC4100FB0120B0F161
:10081000333F3AD2FFE740F2B440C2F20000006832
:1008200098B3FFE740F2B440C2F2000000683C28F1
:1008300007D1FFE740F2B441C2F200010120086095
:10084000FFE740F2D040C2F20000016801310160D0
:1008500000680D2807DBFFE740F2D041C2F200013B
:1008600001200860FFE740F2D040C2F200000068BB
:100870000C2809D1FFE740F21421C2F200010868F8
:10088000C0F101000860FFE7FFE740F2B440C2F2A8
:1008900000000D90006800EB40016FF0050000EBD8
:1008A000410000EE100AB8EEC00A8C200E907821AC
:1008B0000F9137220C92002303F0B2FC0C9A0D9B8F
:1008C0000E980F991B6803EB43035B0000EE103A90
:1008D000B8EEC00A4FF6FF7303F0A2FC0D9A0E9813
:1008E0000F99126846F26763C6F2666352FB03FC17
:1008F0004FEA6C0303EBDC7303EB8303D21A02EBC6
:10090000420340F2B042C2F20002126802EB8302DC
:1009100002EB4202520000EE102AB8EEC00A4B224F
:100920004FF4784303F07CFC0E980F9940F2AC42F0
:10093000C2F20002126802EB4202520000EE102ADC
:10094000B8EEC00A5F2248F21F4303F069FCFFE7DC
:1009500040F2AC40C2F2000000683C2840F09F80AA
:10096000FFE740F2AC40C2F20000069000230360B3
:1009700040F2B440C2F200000990006846F267619C
:10098000C6F266610A9150FB01F2511001EBD2717F
:1009900001EB8101401A00EB400140F2B040C2F28D
:1009A00000000B90006800EB810000EB400040006D
:1009B00000EE100AB8EEC00A8C200790782108914A
:1009C0004B22059203F02CFC059A07980899DDF854
:1009D00024C00B9BDDF828E0DCF800C05CFB0EF4C3
:1009E0004FEA640E0EEBD47E0EEB8E0EACEB0E0CCB
:1009F0000CEB4C0C1B6803EB8C0303EB430C062342
:100A000003EB4C0300EE103AB8EEC00A4FF4784303
:100A100003F006FC07980899099A126802EB420253
:100A2000520000EE102AB8EEC00A37224FF6FF73CC
:100A300003F0F6FB069A07980899126802EB420247
:100A4000520000EE102AB8EEC00A5F2248F21F439F
:100A500003F0E6FB09990A9A0B98036801330360D7
:100A6000096851FB02F35A1002EBD37202EB8202C7
:100A7000891A01EB4101006800EB810140F2FC1092
:100A8000C2F20000016000683C2807D1FFE740F295
:100A9000FC11C2F2000100200860FFE7FFE740F20E
:100AA0000D20C2F20000007801287DD1FFE740F25E
:100AB0000D20C2F200000023037040F2AC40C2F2ED
:100AC00000000490006800EB4000400000EE100AB7
:100AD000B8EEC00A8C200290782103915F22009228
:100AE00003F09EFB009A02980399049B1B6803EB9A
:100AF000430C062303EB4C0300EE103AB8EEC00A99
:100B000048F21F4303F08CFB0298039940F2B44271
:100B1000C2F200020192126846F26763C6F266638F
:100B200052FB03FC4FEA6C0303EBDC7303EB830320
:100B3000D21A02EB420340F2B042C2F20002126843
:100B400002EB830202EB4202520000EE102AB8EEE2
:100B5000C00A4B224FF4784303F062FB019A0298DB
:100B60000399126802EB4202520000EE102AB8EE1E
:100B7000C00A37224FF6FF7303F052FB0498016856
:100B800001310160016840F2C040C2F20000016022
:100B900000683C2807D1FFE740F2C041C2F20001E3
:100BA00000200860FFE7FFE710B010BD0000000064
:100BB00080B58EB000200D90FFE70D980B2800F354
:100BC0000581FFE70D9807F044FB41EC100B51EC59
:100BD000100B9FED7F0B53EC102B0593049207F045
:100BE00063FB41EC100B51EC100B9FED7B0B53ECB6
:100BF000102B0793069207F0A1F941EC100B06F0B9
:100C000033FC51EC100B9FED760B53EC102B07F0DF
:100C10004BFB41EC100B51EC100B9FED730B53ECA5
:100C2000102B0393029207F0E1F841EC100B51EC0A
:100C3000100B07F0A9F840F2E041C2F200010C915C
:100C400008600D9807F005FB049A059B41EC100B1A
:100C500051EC100B07F028FB069A079B41EC100B98
:100C600051EC100B07F06AF941EC100B06F098FB01
:100C700051EC100B9FED5E0B53EC102B07F014FBA7
:100C800041EC100B51EC100B9FED5B0B53EC102B58
:100C90000993089207F0AAF841EC100B51EC100BE5
:100CA00007F072F840F2E841C2F200010A910860D0
:100CB0000D9807F0CEFA049A059B41EC100B51EC0D
:100CC000100B07F0F1FA069A079B41EC100B51EC60
:100CD000100B07F033F941EC100B06F0C5FB51EC9B
:100CE000100B9FED470B53EC102B07F0DDFA029A27
:100CF000039B41EC100B51EC100B07F077F841EC23
:100D0000100B51EC100B07F03FF840F2E441C2F237
:100D100000010B9108600D9807F09BFA049A059B5F
:100D200041EC100B51EC100B07F0BEFA069A079B32
:100D300041EC100B51EC100B07F000F941EC100BDB
:100D400006F02EFB51EC100B9FED2F0B53EC102BEC
:100D500007F0AAFA089A099B41EC100B51EC100B12
:100D600007F044F841EC100B51EC100B07F00CF8B5
:100D70000A990B9A84460C9840F2EC43C2F20003A5
:100D8000C3F800C090ED000ABDEEC00A10EE100AD4
:100D900091ED000ABDEEC00A10EE101A92ED000AA5
:100DA000BDEEC00A10EE102A93ED000ABDEEC00A97
:100DB00010EE103AEE464FF6E07CCEF800C003F09D
:100DC000BDFAFFE70D9801300D90F6E60EB080BD3C
:100DD0004AD8124DFB2109400000000000001840D5
:100DE0000000000000805C400000000000806140C6
:100DF0000000000000805CC00000000000005E40B9
:100E00000000000000405A400000000000405AC0AE
:100E100080B58EB0FFE740F2BC40C2F2000000682F
:100E20003B2800F30F81FFE740F2BC40C2F2000014
:100E30000490016801310160006807F00AFA41EC92
:100E4000100B51EC100B9FED800B53EC102B069305
:100E5000059207F029FA41EC100B51EC100B9FEDB5
:100E60007C0B53EC102B0893079207F067F841ECCA
:100E7000100B06F0F9FA51EC100B9FED770B53ECC9
:100E8000102B07F011FA41EC100B51EC100B9FEDF9
:100E9000740B53EC102B0393029206F0A7FF41EC66
:100EA000100B51EC100B06F06FFF0146049840F256
:100EB000E812C2F200020D921160006807F0C9F951
:100EC000059A069B41EC100B51EC100B07F0ECF966
:100ED000079A089B41EC100B51EC100B07F02EF811
:100EE00041EC100B06F05CFA51EC100B9FED5E0B21
:100EF00053EC102B07F0D8F941EC100B51EC100B10
:100F00009FED5B0B53EC102B0A93099206F06EFFDA
:100F100041EC100B51EC100B06F036FF0146049823
:100F200040F2F012C2F200020B921160006807F06A
:100F300090F9059A069B41EC100B51EC100B07F051
:100F4000B3F9079A089B41EC100B51EC100B06F01B
:100F5000F5FF41EC100B06F087FA51EC100B9FEDFA
:100F6000460B53EC102B07F09FF9029A039B41ECC0
:100F7000100B51EC100B06F039FF41EC100B51EC4B
:100F8000100B06F001FF0146049840F2EC12C2F289
:100F900000020C921160006807F05BF9059A069B4D
:100FA00041EC100B51EC100B07F07EF9079A089BEF
:100FB00041EC100B51EC100B06F0C0FF41EC100B94
:100FC00006F0EEF951EC100B9FED2D0B53EC102BAE
:100FD00007F06AF9099A0A9B41EC100B51EC100BCF
:100FE00006F004FF41EC100B51EC100B06F0CCFEA8
:100FF0000B990C9A84460D9840F2F413C2F2000348
:10100000C3F800C090ED000ABDEEC00A10EE100A51
:1010100091ED000ABDEEC00A10EE101A92ED000A22
:10102000BDEEC00A10EE102A93ED000ABDEEC00A14
:1010300010EE103AEE464FF6E07CCEF800C003F01A
:101040007DF9E8E60EB080BD4AD8124DFB2109407B
:101050000000000000003E400000000000405C4036
:1010600000000000008061400000000000405CC003
:101070000000000000005E400000000000805B40B7
:101080000000000000805BC080B584B08C2001901F
:10109000782102915F229FED0E0A8DED030A48F23E
:1010A0001F4303F0BDF8019802999DED030A4B22FE
:1010B0004FF4784303F0B4F8019802999DED030AC8
:1010C00037224FF6FF7303F0ABF804B080BD00BFCA
:1010D0000000000081B0EFF3108072B60090FFE7CF
:1010E000FEE7000080B584B003900398006C0068B0
:1010F0000290039800680068019002980399496C77
:1011000001F01F01C8404007002825D5FFE79DF8E2
:101110000400400700281FD5FFE703980068006817
:101120008006002807D4FFE703980168086820F0CC
:1011300004000860FFE70398016C406C00F01F0298
:101140000420904048600398006B20B1FFE70398AB
:10115000016B8847FFE76EE002980399496C01F044
:101160001F01C840800700282FD5FFE79DF8040025
:101170008007002829D5FFE70398006800688006EB
:1011800000280BD4FFE703980168086820F00A00E4
:1011900008600399012081F82500FFE70398016C9E
:1011A000406C00F01F02022090404860FFE7039966
:1011B000002081F82400FFE70398C06A20B1FFE710
:1011C0000398C16A8847FFE734E002980399496CA5
:1011D00001F01F01C8400007002829D5FFE79DF84E
:1011E00004000007002823D5FFE70398016808687A
:1011F00020F00E0008600398026C406C00F01F01A4
:10120000012000FA01F151600399C863039981F844
:101210002500FFE70399002081F82400FFE70398E9
:10122000406B20B1FFE70398416B8847FFE700E080
:10123000FFE7FFE7FFE704B080BD000080B584B0A2
:101240000290029820B9FFE701208DF80F009CE082
:101250000298006840F20741C4F20201884218D89F
:10126000FFE7029908684FF6F872CBF6FD7210445A
:101270004CF6CD42CCF6CC42A0FB02026FF003004C
:1012800000EA9200486402990020C4F20200086457
:1012900018E0029908684FF6F832CBF6FD72104458
:1012A0004CF6CD42CCF6CC42A0FB02026FF003001C
:1012B00000EA92004864029940F20040C4F2020041
:1012C0000864FFE70299022081F82500029800686F
:1012D00000680190019847F6F071884301900299E7
:1012E0008868D1F80CC00B694A6940EA0C001843C1
:1012F00010438A691043CA691043096A014301987F
:101300000843019001980299096808600298FFF764
:1013100067F802988068B0F5804F04D1FFE7029922
:1013200000204860FFE702990879896C08600298FC
:10133000C16C006D48600298406888B1FFE7029870
:10134000406804280CD8FFE70298FFF783F802985A
:10135000416D002008600298816DC06D486007E013
:10136000029900204865029988650299C865FFE7DF
:1013700002990020C863029A012182F8251002997F
:1013800081F824008DF80F00FFE79DF80F0004B0EE
:1013900080BD000080B584B0039000F0E7F90290B2
:1013A000039801900198013048B1FFE740F2EC004A
:1013B000C2F200000168019808440190FFE7FFE7CE
:1013C00000F0D4F90299401A0199884201D2FFE74E
:1013D000F6E704B080BD00008BB00A9009910020B0
:1013E0000890FFE7099800680899C840002800F0B5
:1013F000A581FFE709980068089A012191400840FB
:1014000007900798002800F09581FFE70998406849
:1014100000F00300012807D0FFE70998406800F0BA
:10142000030002282FD1FFE70A98806806900898E9
:101430004100032000FA01F10698884306900998BC
:10144000C0680899490000FA01F10698084306901F
:1014500006980A9988600A984068069008990120C1
:1014600000FA01F106988843069009984068C0F395
:101470000010089900FA01F10698084306900698B2
:101480000A994860FFE70998406800F003000328C4
:1014900018D0FFE70A98C06806900898410003201A
:1014A00000FA01F106988843069009988068089927
:1014B000490000FA01F106980843069006980A9937
:1014C000C860FFE70998406800F00300022826D1B1
:1014D000FFE70A9808996FF0030202EA51010844F5
:1014E000006A0690089800F0070081000F2000FABB
:1014F00001F106988843069009980069089901F05F
:101500000701890000FA01F1069808430690069841
:101510000A99089B02EA530211440862FFE70A98FD
:101520000068069008984100032000FA01F106982F
:10153000884306900998406800F003000899490024
:1015400000FA01F106980843069006980A99086087
:10155000099880798007002800F0EB80FFE7FFE71B
:1015600041F26000C4F20200016841F00101016033
:10157000006800F0010005900598FFE7089820F04A
:1015800003000821C4F2010140580690089800F0B9
:10159000030081000F2000FA01F1069888430690AD
:1015A0000A98B0F1904F03D1FFE70020049042E089
:1015B0000A9840F20041C4F60001884203D1FFE7D7
:1015C0000120039034E00A9840F60001C4F60001BF
:1015D000884203D1FFE70220029026E00A9840F6F5
:1015E0000041C4F60001884203D1FFE703200190C7
:1015F00018E00A9841F20001C4F60001884203D1C4
:10160000FFE7042000900AE00A9941F20042C4F684
:1016100000020620914208BF05200090FFE70098D5
:101620000190FFE701980290FFE702980390FFE71F
:1016300003980490FFE70498089901F003018900DA
:1016400000FA01F10698084306900698089921F0DF
:1016500003010822C4F20102885040F20840C4F29B
:10166000010000680690079906988843069009983B
:101670008079C006002805D5FFE70799069808433A
:101680000690FFE7069840F20841C4F201010860A5
:1016900040F20C40C4F201000068069007990698D9
:1016A00088430690099880798006002805D5FFE7D1
:1016B0000799069808430690FFE7069840F20C4108
:1016C000C4F20101086040F20440C4F20100006865
:1016D00006900799069888430690099880798007B4
:1016E000002805D5FFE70799069808430690FFE70D
:1016F000069840F20441C4F20101086040F2004043
:10170000C4F2010000680690079906988843069085
:1017100009988079C00728B1FFE707990698084320
:101720000690FFE7069840F20041C4F2010108600C
:10173000FFE7FFE708980130089053E60BB07047C9
:1017400082B00190ADF802108DF801209DF80100E3
:1017500028B1FFE7BDF802000199886104E0BDF8F7
:10176000020001998862FFE702B0704740F2DC4056
:10177000C2F200000068704740F2EC00C2F20000C4
:10178000026840F2DC41C2F20001086810440860BF
:101790007047000080B582B000208DF8070003205C
:1017A00000F09AF80F2000F00DF820B1FFE70120BB
:1017B0008DF8070002E000F049F8FFE79DF8070008
:1017C00002B080BD80B582B0019000208DF803008A
:1017D00040F2EC00C2F20000006878B3FFE740F28C
:1017E0000000C2F20000006840F2EC01C2F2000109
:1017F0000A684FF47A71B1FBF2F1B0FBF1F001F03D
:10180000D3F9B0B9FFE701980F280DD8FFE7019988
:101810004FF0FF30002200F047F8019840F2F0014D
:10182000C2F20001086003E001208DF80300FFE729
:1018300003E001208DF80300FFE703E001208DF8AD
:101840000300FFE79DF8030002B080BD80B582B0C1
:10185000FFE741F26000C4F20200016841F00101BB
:101860000160006800F0010001900198FFE7FFE7C8
:1018700041F25800C4F20200016841F08051016059
:10188000006800F0805000900098FFE700F006F933
:1018900002B080BD80B582B08DF807009DF90700C9
:1018A00005F096FC02B080BD80B586B08DF81700BB
:1018B0000491039205F0A4FC02909DF91700019099
:1018C00002980499039A04F0FFFB0146019805F081
:1018D0009FFC06B080BD000080B582B001900198E9
:1018E00005F0B8FC02B080BD85B0039003980028D5
:1018F0005ED1FFE747F20000C4F20000006800F488
:10190000C060B0F5806F49D1FFE747F28001C4F2B3
:101910000001086820F48070086047F20002C4F2F9
:1019200000021168012060F34A21116040F20001B9
:10193000C2F200010968322251434DF68362C4F2BB
:101940001B32A1FB022100EB91400290FFE747F21E
:101950001400C4F20000016800204905002901902C
:1019600006D5FFE70298002818BF01200190FFE785
:101970000198C00720B1FFE7029801380290E6E71E
:1019800047F21400C4F2000000684005002804D5A6
:10199000FFE703208DF813007CE008E047F28001A8
:1019A000C4F20001086820F480700860FFE76DE071
:1019B0000398B0F5007F5ED1FFE747F20000C4F264
:1019C0000000006800F4C060B0F5806F49D1FFE707
:1019D00047F28001C4F20001086840F4807008609A
:1019E00047F20002C4F200021168012060F34A21AC
:1019F000116040F20001C2F2000109683222514335
:101A00004DF68362C4F21B32A1FB022100EB914030
:101A10000290FFE747F21400C4F2000001680020C2
:101A200049050029009006D5FFE70298002818BF55
:101A300001200090FFE70098C00720B1FFE702985F
:101A400001380290E6E747F21400C4F20000006893
:101A50004005002804D5FFE703208DF8130019E0A6
:101A600008E047F28001C4F20001086840F4807089
:101A70000860FFE709E047F20001C4F200010868CE
:101A8000022262F34A200860FFE7FFE700208DF89A
:101A90001300FFE79DF8130005B0704747F20801F7
:101AA000C4F20001086840F48040086070470000FC
:101AB00080B586B00490039100200090049820B96E
:101AC000FFE701208DF8170081E1039842F2000141
:101AD000C4F20201096801F00F01884216D9FFE73C
:101AE00042F20000C4F20200016821F00F01039AE3
:101AF00011430160006800F00F000399884204D090
:101B0000FFE701208DF8170061E1FFE704980078F6
:101B1000C007002800F0A380FFE70498406803286E
:101B200039D1FFE741F20000C4F2020000688001F1
:101B3000002804D4FFE701208DF8170047E104F0E6
:101B4000FBFA019001984BF20141C0F2C441884276
:101B500020D3FFE741F20800C4F20200006810F051
:101B6000F00F0AD0FFE7049800788007002810D50E
:101B7000FFE70498806860B9FFE741F20801C4F20A
:101B800002010868082262F30710086080200090B4
:101B9000FFE7FFE738E00498406802280ED1FFE72E
:101BA00041F20000C4F2020000688003002804D45F
:101BB000FFE701208DF8170009E10DE041F2000078
:101BC000C4F2020000684005002804D4FFE70120A9
:101BD0008DF81700FBE0FFE700F0FEF80190019898
:101BE0004BF20141C0F2C44188420CD3FFE741F2FD
:101BF0000801C4F202010868082262F307100860B5
:101C000080200090FFE7FFE741F20801C4F20201E3
:101C1000086820F00300049A526810430860FFF738
:101C2000A5FD0290FFE741F20800C4F2020000683F
:101C300000F00C0004994968B0EB810F0ED0FFE76B
:101C4000FFF794FD0299401A41F28931884204D38A
:101C5000FFE703208DF81700B9E0E4E7FFE70498F9
:101C60000078800700282CD5FFE70498007840070B
:101C7000002809D5FFE741F20801C4F20201086813
:101C800040F4E0600860FFE704980078000700284F
:101C90000BD5FFE741F20801C4F20201086840F4E5
:101CA000E06020F460500860FFE741F20801C4F2F0
:101CB0000201086820F0F000049A9268104308605E
:101CC0000DE00098802809D1FFE741F20801C4F235
:101CD0000201086820F0F0000860FFE7FFE70398C2
:101CE00042F20001C4F20201096801F00F018842CA
:101CF00028D2FFE742F20001C4F20201086820F096
:101D00000F00039A10430860FFF730FD0290FFE7D1
:101D100042F20000C4F20200006800F00F000399D4
:101D200088420ED0FFE7FFF721FD0299401A41F2E9
:101D30008931884204D3FFE703208DF8170046E07D
:101D4000E6E7FFE704980078400700280CD5FFE796
:101D500041F20801C4F20201086820F4E060049A2C
:101D6000D26810430860FFE7049800780007002855
:101D70000DD5FFE741F20801C4F20201086820F422
:101D80006050049A126940EAC2000860FFE700F060
:101D900023F841F20801C4F202010968C9B20A0934
:101DA00048F6C801C0F60001895C01F01F01C84077
:101DB00040F20001C2F20001086040F2F000C2F2FD
:101DC00000000068FFF7FEFC8DF81700FFE79DF8A4
:101DD000170006B080BD000086B041F20800C4F2D2
:101DE0000200006800F00C00042806D1FFE742F270
:101DF0000040C0F2F400019069E041F20800C4F232
:101E00000200006800F00C00082806D1FFE741F648
:101E10000030C0F2B700019058E041F20800C4F26F
:101E20000200006800F00C000C284BD1FFE741F2E3
:101E30000C00C4F20200016801F003010491006883
:101E4000C1B2012000EB111002900498009002280A
:101E500015D0FFE70098032812D1FFE7029941F659
:101E60000030C0F2B700B0FBF1F041F20C01C4F257
:101E700002010968C1F306214843059011E0FFE71C
:101E8000029942F20040C0F2F400B0FBF1F041F2DE
:101E90000C01C4F202010968C1F306214843059010
:101EA000FFE741F20C00C4F20200006800F0C061DC
:101EB000022000EB1160039005980399B0FBF1F04C
:101EC000019002E000200190FFE7FFE7FFE70198A3
:101ED00006B07047B0B588B00690069820B9FFE705
:101EE00001208DF81F00CCE306980078C007002879
:101EF00000F09B80FFE741F20800C4F20200006896
:101F000000F00C00049041F20C00C4F202000068E2
:101F100000F00300039004980C2804D1FFE7039815
:101F2000032804D0FFE70498082812D1FFE741F204
:101F30000000C4F2020000688003002808D5FFE713
:101F40000698406820B9FFE701208DF81F0098E34C
:101F50006AE0FFE706984068B0F5803F09D1FFE7E7
:101F600041F20001C4F20201086840F480300860C8
:101F700020E006984068B0F5A02F0DD1FFE741F2B0
:101F80000001C4F20201086840F48020086008687B
:101F900040F4803008600CE041F20001C4F202011C
:101FA000086820F480300860086820F48020086009
:101FB000FFE7FFE7FFE706984068D0B1FFE7FFF7CC
:101FC000D5FB0590FFE741F20000C4F20200006873
:101FD000800300280CD4FFE7FFF7C8FB0599401ADF
:101FE000652804D3FFE703208DF81F0049E3EAE7E3
:101FF00019E0FFF7BBFB0590FFE741F20000C4F2D8
:1020000002000068800300280CD5FFE7FFF7AEFB55
:102010000599401A652804D3FFE703208DF81F00B7
:102020002FE3EAE7FFE7FFE7FFE70698007880077E
:10203000002840F19F80FFE741F20800C4F202004F
:10204000006800F00C00049041F20C00C4F20200A1
:10205000006800F00300039004980C2804D1FFE707
:102060000398022804D0FFE7049804282CD1FFE746
:1020700041F20000C4F2020000684005002808D5C3
:10208000FFE70698C06820B9FFE701208DF81F0020
:10209000F7E241F20401C4F20201086820F0FE40B8
:1020A000069A126940EA0260086040F2F000C2F24B
:1020B00000000068FFF786FB20B1FFE701208DF8E4
:1020C0001F00DEE2FFE754E00698C06870B3FFE748
:1020D00041F20001C4F20201086840F48070086017
:1020E000FFF744FB0590FFE741F20000C4F2020055
:1020F0000068400500280CD4FFE7FFF737FB05997F
:10210000401A032804D3FFE703208DF81F00B8E22C
:10211000EAE741F20401C4F20201086820F0FE403F
:10212000069A126940EA0260086021E041F200016B
:10213000C4F20201086820F480700860FFF716FB03
:102140000590FFE741F20000C4F20200006840057C
:1021500000280CD5FFE7FFF709FB0599401A032873
:1021600004D3FFE703208DF81F008AE2EAE7FFE7C8
:10217000FFE7FFE7069800780007002849D5FFE74A
:102180000698406910B3FFE741F29401C4F20201DE
:10219000086840F001000860FFF7E8FA0590FFE7E3
:1021A00041F29400C4F202000068800700280CD4B9
:1021B000FFE7FFF7DBFA0599401A032804D3FFE78E
:1021C00003208DF81F005CE2EAE721E041F2940170
:1021D000C4F20201086820F001000860FFF7C6FAA7
:1021E0000590FFE741F29400C4F202000068800706
:1021F00000280CD5FFE7FFF7B9FA0599401A032824
:1022000004D3FFE703208DF81F003AE2EAE7FFE777
:10221000FFE7069800784007002840F1C680FFE7F6
:1022200000208DF80B0041F25800C4F20200006853
:10223000C000002813D4FFE7FFE741F25800C4F2C2
:102240000200016841F080510160006800F0805098
:1022500001900198FFE701208DF80B00FFE747F29E
:102260000000C4F200000068C005002822D4FFE787
:1022700047F20001C4F20001086840F48070086071
:10228000FFF774FA0590FFE747F20000C4F2000080
:102290000068C00500280CD4FFE7FFF767FA05992E
:1022A000401A032804D3FFE703208DF81F00E8E15C
:1022B000EAE7FFE7FFE706988068012809D1FFE712
:1022C00041F29001C4F20201086840F00100086088
:1022D0001FE00698806805280DD1FFE741F29001C4
:1022E000C4F20201086840F004000860086840F089
:1022F000010008600CE041F29001C4F2020108689C
:1023000020F001000860086820F004000860FFE782
:10231000FFE7FFE706988068E0B1FFE7FFF726FADE
:102320000590FFE741F29000C4F2020000688007C8
:1023300000280ED4FFE7FFF719FA0599401A41F279
:102340008931884204D3FFE703208DF81F0098E10C
:10235000E8E71BE0FFF70AFA0590FFE741F290007B
:10236000C4F202000068800700280ED5FFE7FFF7DF
:10237000FDF90599401A41F28931884204D3FFE7FB
:1023800003208DF81F007CE1E8E7FFE79DF80B00D4
:10239000012809D1FFE741F25801C4F2020108689F
:1023A00020F080500860FFE7FFE70698007880067D
:1023B000002849D5FFE70698806910B3FFE741F28E
:1023C0009801C4F20201086840F001000860FFF7BC
:1023D000CDF90590FFE741F29800C4F202000068D1
:1023E000800700280CD4FFE7FFF7C0F90599401AD1
:1023F000032804D3FFE703208DF81F0041E1EAE73B
:1024000021E041F29801C4F20201086820F00100C5
:102410000860FFF7ABF90590FFE741F29800C4F2BE
:1024200002000068800700280CD5FFE7FFF79EF93F
:102430000599401A032804D3FFE703208DF81F00F5
:102440001FE1EAE7FFE7FFE70698C069002800F010
:102450001481FFE741F20800C4F20200006800F0B6
:102460000C000C2800F0B080FFE70698C069022835
:102470007CD1FFE741F20001C4F20201086820F0BC
:1024800080700860FFF772F90590FFE741F20000E5
:10249000C4F202000068800100280CD5FFE7FFF7B6
:1024A00065F90599401A032804D3FFE703208DF846
:1024B0001F00E6E0EAE741F20C01C4F202010868FD
:1024C00048F20C02C0F29F121040DDF818C0DCF890
:1024D0002020DCF82450DCF828E0DCF82C306FF009
:1024E0000F0404EB0514224342EA0E22DCF83040CC
:1024F00040F2000ECFF6E07E0EEA045EAEF5001E5E
:1025000042EA0E02DCF834E04FF07E4C0CEA0E6C2E
:102510000CF17E4C42EA0C0242EAC36210430860AE
:1025200041F20002C4F20202106840F080701060B4
:10253000086840F080700860FFF718F90590FFE721
:1025400041F20000C4F202000068800100280CD4AF
:10255000FFE7FFF70BF90599401A032804D3FFE7BB
:1025600003208DF81F008CE0EAE72CE041F2000127
:10257000C4F20201086820F080700860FFF7F6F8E6
:102580000590FFE741F20000C4F2020000688001FC
:1025900000280CD5FFE7FFF7E9F80599401A032852
:1025A00004D3FFE703208DF81F006AE0EAE741F259
:1025B0000C01C4F2020108684FF6FC72CFF6EE621D
:1025C00010400860FFE757E00698C069012804D171
:1025D000FFE701208DF81F0053E041F20C00C4F228
:1025E000020000680390039800F003000699096A4E
:1025F00088423BD1FFE7039800F0F00006994A6A51
:102600006FF00F0101EB021188422FD1FFE7039811
:1026100000F4FE400699896AB0EB012F26D1FFE74E
:10262000039800F078400699C96AB0EBC16F1DD1DC
:10263000FFE7039800F4C00006990A6B0021CFF66B
:10264000E07101EA0251A1F5001188420ED1FFE7C5
:10265000039800F0C06006994A6B4FF07E4101EA92
:10266000026101F17E41884204D0FFE701208DF82C
:102670001F0006E0FFE7FFE7FFE700208DF81F00DF
:10268000FFE79DF81F0008B0B0BD000080B584B022
:102690000290029820B9FFE701208DF80F0099E021
:1026A0000298406A60B9FFE702984068B0F5827FFF
:1026B00001D1FFE703E002990020C861FFE705E0D0
:1026C00002990020086102994861FFE70299002001
:1026D0008862029890F85D0040B9FFE702990020F7
:1026E00081F85C00029800F079F8FFE70299022077
:1026F00081F85D0002980168086820F040000860D9
:102700000298C068B0F5E06F03D9FFE700200190A0
:1027100003E04FF480500190FFE70298C068B0F5E5
:10272000706F0AD0FFE70298C068B0F5E06F04D080
:10273000FFE7029900208862FFE7029A0092116881
:102740005068D2F808C0136900F482700CF4044C8D
:10275000604403F002031844536903F00103184472
:10276000936903F400731844D36903F038031844E1
:10277000136A03F080031844926A02F40052104373
:102780000860029B1968DA68D3F818E0D3F824C00F
:10279000042000EA1E400CF0100C60445B6B03F058
:1027A0000803184402F470621044019A02F4805243
:1027B0001044486002980168C86920F40060C8614C
:1027C000029900200866029A012182F85D108DF8B6
:1027D0000F00FFE79DF80F0004B080BD80B58AB000
:1027E00009900020089007900690059004900998A1
:1027F000006843F20001C4F20101884255D1FFE7AD
:10280000FFE741F26000C4F20200016841F4805128
:102810000160006800F4805003900398FFE7FFE731
:1028200041F24C00C4F20200016841F00101016074
:10283000006800F0010002900298FFE7A0200490D9
:1028400002200590002000900690032007900520AC
:1028500008904FF0904004A9FEF7BEFD009940F2A9
:102860002020C2F2000001900822C4F2020202609D
:102870000B22426010228260C160802202614161AD
:102880008161C1610162FEF7D9FC18B1FFE7FEF773
:1028900021FCFFE7FFE7099840F22021C2F2000186
:1028A000416509988862FFE7FFE70AB080BD000034
:1028B00080B588B006900591ADF812200393FEF71D
:1028C00055FF0290BDF81200ADF80600069890F88A
:1028D0005D00012804D0FFE702208DF81F005FE1B2
:1028E000059820B1FFE7BDF8120020B9FFE70120ED
:1028F0008DF81F0054E1FFE7069890F85C0001286E
:1029000004D1FFE702208DF81F0049E1069901205C
:1029100081F85C00FFE7FFE70699032081F85D007E
:102920000699002008660599069A9163BDF8121071
:10293000069A9187BDF81210069AD1870699086405
:102940000699A1F844000699A1F846000699086581
:102950000699C86406988068B0F5004F0DD1FFE76E
:1029600006980168086820F0400008600698016831
:10297000086840F480400860FFE706980068006837
:1029800000F04000402807D0FFE70698016808687B
:1029900040F040000860FFE70698C068B0F5E06FBF
:1029A00051D9FFE70698406828B1FFE7BDF8060057
:1029B00001280ED1FFE706980168806B0088C86087
:1029C0000699886B023088630699C88F0138C887DA
:1029D000FFE7FFE70698C08FA0B3FFE706980068FF
:1029E0008068800700280ED5FFE706980168806B95
:1029F0000088C8600699886B023088630699C88F82
:102A00000138C8871DE0FEF7B1FE0299401A03990C
:102A1000884204D3FFE70398013018B9FFE7039811
:102A200070B9FFE70699012081F85D00FFE706997C
:102A3000002081F85C00FFE703208DF81F00AFE065
:102A4000FFE7C7E779E00698406828B1FFE7BDF8DF
:102A50000600012822D1FFE70698C08F02280ED376
:102A6000FFE706980168806B0088C8600699886B4C
:102A7000023088630699C88F0238C8870DE006982F
:102A80000168806B007808730699886B0130886351
:102A90000699C88F0138C887FFE7FFE7FFE7069868
:102AA000C08F002848D0FFE706980068806880073C
:102AB000002822D5FFE70698C08F02280ED3FFE733
:102AC00006980168806B0088C8600699886B0230A0
:102AD00088630699C88F0238C8870DE00698016898
:102AE000806B007808730699886B013088630699BB
:102AF000C88F0138C887FFE71DE0FEF737FE02994F
:102B0000401A0399884204D3FFE70398013018B9AB
:102B1000FFE7039870B9FFE70699012081F85D008F
:102B2000FFE70699002081F85C00FFE703208DF89D
:102B30001F0035E0FFE7B2E7FFE706980399029A26
:102B400003F05CFB20B1FFE7069920200866FFE751
:102B50000698806870B9FFE7FFE7002000900698AC
:102B60000068C0680090069800688068009000982F
:102B7000FFE7FFE70699012081F85D00FFE706996E
:102B8000002081F85C00FFE70698006E20B1FFE7A7
:102B900001208DF81F0003E000208DF81F00FFE7E3
:102BA0009DF81F0008B080BD80B582B001900198EB
:102BB00003F0AEFC02B080BD81B0009001B0704760
:102BC00081B0009001B0704781B0009001B07047B3
:102BD00081B0009001B0704781B0009001B07047A3
:102BE00081B0009001B0704785B003900291FFE77B
:102BF000039890F83C00012804D1FFE702208DF8EB
:102C000013008CE00399012081F83C00FFE7FFE707
:102C10000399022081F83D00039800684068019004
:102C200003980068806800900398006842F60041AD
:102C3000C4F20101884209D0FFE70398006843F21B
:102C40000041C4F2010188420AD1FFE7019820F453
:102C50007000019002984168019808430190FFE7D5
:102C600001984FF68F71CFF6FF51084001900298FE
:102C70000168019808430190019803990968486028
:102C80000398006842F60041C4F2010188422AD04C
:102C9000FFE703980068B0F1804F24D0FFE7039866
:102CA000006840F20041C4F2000188421BD0FFE7F7
:102CB0000398006840F60001C4F20001884212D077
:102CC000FFE70398006843F20041C4F20101884223
:102CD00009D0FFE70398006844F20001C4F2010143
:102CE00088420ED1FFE7009820F080000090029803
:102CF00081680098084300900098039909688860EB
:102D0000FFE70399012081F83D00FFE703990020C8
:102D100081F83C00FFE700208DF81300FFE79DF8E5
:102D2000130005B07047000081B0009001B07047FB
:102D300080B582B00090009820B9FFE701208DF89F
:102D4000070045E0009890F83D0040B9FFE7009982
:102D5000002081F83C00009800F03EF8FFE7009961
:102D6000022081F83D00009951F8040B03F01CFD8E
:102D70000099012081F84800FFE70099012081F8BF
:102D80003E00009981F83F00009981F840000099C9
:102D900081F84100009981F84200009981F84300D0
:102DA000FFE7FFE70099012081F84400009981F8CE
:102DB0004500009981F84600009981F84700FFE737
:102DC0000099012081F83D0000208DF80700FFE701
:102DD0009DF8070002B080BD80B58CB00B900B98B9
:102DE0000068B0F1804F10D1FFE7FFE741F25800D3
:102DF000C4F20200016841F001010160006800F0C6
:102E000001000A900A98FFE7AEE00B98006840F2D4
:102E10000041C4F20001884219D1FFE7FFE741F207
:102E20005800C4F20200016841F00201016000682C
:102E300000F0020009900998FFE71D20049000228D
:102E40001146FEF731FD0498FEF724FD8BE00B9848
:102E5000006841F20001C4F20001884219D1FFE785
:102E6000FFE741F25800C4F20200016841F010018E
:102E70000160006800F0100008900898FFE7362015
:102E8000039000221146FEF70FFD0398FEF702FDA6
:102E900068E00B98006841F20041C4F200018842EA
:102EA00019D1FFE7FFE741F25800C4F202000168C0
:102EB00041F020010160006800F0200007900798B1
:102EC000FFE73720029000221146FEF7EDFC029842
:102ED000FEF7E0FC45E00B98006844F20041C4F2C4
:102EE0000101884219D1FFE7FFE741F26000C4F217
:102EF0000200016841F400310160006800F4003014
:102F000006900698FFE71920019000221146FEF76F
:102F1000CBFC0198FEF7BEFC22E00B98006844F65B
:102F20000001C4F20101884219D1FFE7FFE741F235
:102F30006000C4F20200016841F480210160006871
:102F400000F4802005900598FFE71A2000900022E9
:102F50001146FEF7A9FC0098FEF79CFCFFE7FFE78F
:102F6000FFE7FFE7FFE7FFE70CB080BD83B001900C
:102F7000019890F83D00012804D0FFE701208DF86A
:102F80000B0060E00199022081F83D000198016882
:102F9000C86840F00100C8600198006842F600412E
:102FA000C4F2010188422AD0FFE701980068B0F11D
:102FB000804F24D0FFE70198006840F20041C4F23E
:102FC000000188421BD0FFE70198006840F600012D
:102FD000C4F20001884212D0FFE70198006843F272
:102FE0000041C4F20101884209D0FFE7019800685E
:102FF00044F20001C4F20101884219D1FFE70198AF
:10300000006880680721C0F2010108400090009824
:1030100006280CD0FFE70098B0F5803F07D0FFE707
:1030200001980168086840F001000860FFE706E0C9
:1030300001980168086840F001000860FFE700207F
:103040008DF80B00FFE79DF80B0003B07047000000
:1030500080B586B00490039100208DF80B00FFE747
:10306000049890F83C00012804D1FFE702208DF875
:103070001700D3E00499012081F83C00FFE7FFE747
:103080000499022081F83D0004980068806801904E
:1030900001984FF68871CFF6CE71084001900198E3
:1030A00020F47F4001900198049909688860039892
:1030B00000680090002800F09780FFE70098102833
:1030C00000F09280FFE70098202800F08D80FFE755
:1030D0000098302800F08880FFE70098402876D0DC
:1030E000FFE70098502858D0FFE70098602861D08B
:1030F000FFE7009870282CD0FFE70098B0F5805FBC
:1031000026D0FFE70098B0F5005F37D0FFE70098C2
:10311000B0F1101F68D0FFE700982021C0F2100125
:10312000884261D0FFE700983021C0F21001884248
:103130005AD0FFE700984021C0F21001884253D0D6
:10314000FFE700987021C0F2100188424CD052E095
:1031500055E004980068039B5A689968DB6803F09F
:103160000BFC0498006880680190019840F077009B
:103170000190019804990968886040E0049800680B
:10318000039B5A689968DB6803F0F6FB04980168B2
:10319000886840F48040886031E004980068039AB1
:1031A0005168D26803F0C0FF04980068502103F012
:1031B000FDFB24E004980068039A5168D26803F08C
:1031C000DBFF04980068602103F0F0FB17E004982F
:1031D0000068039A5168D26803F0A6FF049800685B
:1031E000402103F0E3FB0AE00498006803990968B2
:1031F00003F0DCFB03E001208DF80B00FFE70499EE
:10320000012081F83D00FFE70499002081F83C008F
:10321000FFE79DF80B008DF81700FFE79DF81700FA
:1032200006B080BD81B0009001B0704780B584B019
:10323000039003980068C0680290039800680069D2
:1032400001909DF804008007002824D5FFE79DF831
:103250000800800700281DD5FFE7039801686FF07C
:1032600002000861039901200877039800688069CB
:10327000800720B1FFE70398FFF7D4FF06E003982B
:1032800000F088F9039800F0B9FAFFE703990020ED
:103290000877FFE7FFE79DF804004007002825D5E1
:1032A000FFE79DF80800400700281ED5FFE70398B8
:1032B00001686FF004000861039902200877039801
:1032C0000068806910F4407F04D0FFE70398FFF79F
:1032D000A9FF06E0039800F05DF9039800F08EFA6C
:1032E000FFE7039900200877FFE7FFE79DF8040058
:1032F0000007002824D5FFE79DF8080000070028F4
:103300001DD5FFE7039801686FF008000861039975
:103310000420087703980068C069800720B1FFE7A0
:103320000398FFF77FFF06E0039800F033F9039856
:1033300000F064FAFFE7039900200877FFE7FFE752
:103340009DF80400C006002825D5FFE79DF8080079
:10335000C00600281ED5FFE7039801686FF0100033
:10336000086103990820087703980068C06910F481
:10337000407F04D0FFE70398FFF754FF06E003986F
:1033800000F008F9039800F039FAFFE703990020EC
:103390000877FFE7FFE79DF80400C00778B1FFE773
:1033A0009DF80800C00748B1FFE7039801686FF077
:1033B00001000861039800F085FCFFE7FFE7019832
:1033C00000F08000802806D0FFE79DF80500800609
:1033D000002810D5FFE79DF808000006002809D551
:1033E000FFE7039801686FF4025008610398FFF744
:1033F000E7FBFFE7FFE79DF80500C00780B1FFE7A7
:103400009DF808000006002809D5FFE70398016829
:103410006FF4807008610398FFF7CEFBFFE7FFE7CA
:103420009DF804004006002810D5FFE79DF808002D
:103430004006002809D5FFE7039801686FF04000B7
:103440000861039800F0B4FCFFE7FFE79DF8040073
:103450008006002810D5FFE79DF8080080060028A8
:1034600009D5FFE7039801686FF020000861039811
:10347000FFF7AAFBFFE7FFE79DF80600C00600285C
:1034800010D5FFE79DF80A00C006002809D5FFE720
:10349000039801686FF4801008610398FFF79CFBA4
:1034A000FFE7FFE79DF806008006002810D5FFE73C
:1034B0009DF80A008006002809D5FFE703980168F7
:1034C0006FF4001008610398FFF782FBFFE7FFE746
:1034D0009DF806004006002810D5FFE79DF80A0079
:1034E0004006002809D5FFE7039801686FF48000C3
:1034F00008610398FFF774FBFFE7FFE79DF80600FC
:103500000006002810D5FFE79DF80A0000060028F5
:1035100009D5FFE7039801686FF40000086103987C
:10352000FFF702FCFFE7FFE704B080BD80B588B07D
:103530000790002006900590049003900290079851
:10354000006840F20041C4F2000188421FD1FFE749
:10355000FFE741F24C00C4F20200016841F00401AF
:103560000160006800F0040001900198FFE740202E
:10357000029002200390002104910591069040F6EC
:103580000000C4F6000002A9FDF726FFFFE708B01F
:1035900080BD000081B0009001B0704780B586B05A
:1035A00004900391029200208DF80700FFE7049831
:1035B00090F83C00012804D1FFE702208DF81700A5
:1035C000C0E00499012081F83C00FFE7FFE7029882
:1035D0000090142800F2A7800099DFE801F00BA406
:1035E000A4A424A4A4A43EA4A4A457A4A4A471A401
:1035F000A4A48A0004980068039903F0EFF90498E2
:103600000168886940F00800886104980168886949
:1036100020F00400886103980269049801688869B1
:103620001043886183E004980068039903F080FAEE
:1036300004980168886940F4006088610498016812
:10364000886920F4806088610398026904980168A1
:10365000886940EA0220886169E00498006803995B
:1036600003F01EFB04980168C86940F00800C861B7
:1036700004980168C86920F00400C86103980269D1
:1036800004980168C8691043C86150E00498006854
:10369000039903F0BDFB04980168C86940F4006019
:1036A000C86104980168C86920F48060C861039803
:1036B000026904980168C86940EA0220C86136E0DE
:1036C00004980068039903F05BFC04980168086D96
:1036D00040F00800086504980168086D20F00400B7
:1036E00008650398026904980168086D104308652D
:1036F0001DE004980068039903F0ACFC049801688D
:10370000086D40F40060086504980168086D20F4B5
:10371000806008650398026904980168086D40EAB2
:103720000220086503E001208DF80700FFE7FFE7AE
:103730000499002081F83C00FFE79DF807008DF810
:103740001700FFE79DF8170006B080BD80B582B076
:103750000090009820B9FFE701208DF8070045E0B0
:10376000009890F83D0040B9FFE70099002081F8EB
:103770003C00009800F03EF8FFE70099022081F835
:103780003D00009951F8040B03F00EF80099012058
:1037900081F84800FFE70099012081F83E00009978
:1037A00081F83F00009981F84000009981F84100BC
:1037B000009981F84200009981F84300FFE7FFE794
:1037C0000099012081F84400009981F84500009992
:1037D00081F84600009981F84700FFE70099012031
:1037E00081F83D0000208DF80700FFE79DF80700F5
:1037F00002B080BD81B0009001B0704781B00090F0
:1038000001B0704780B592B010900F9100208DF8F4
:103810003B000F9828B9FFE7109890F83E000C90F5
:1038200034E00F98042805D1FFE7109890F83F0086
:103830000B9028E00F98082805D1FFE7109890F822
:1038400040000A901CE00F980C2805D1FFE7109863
:1038500090F84100099010E00F98102805D1FFE77B
:10386000109890F84200089004E0109890F84300F7
:103870000890FFE708980990FFE709980A90FFE78A
:103880000A980B90FFE70B980C90FFE70C98012823
:1038900004D0FFE701208DF8470017E10F9828B901
:1038A000FFE71099022081F83E0038E00F980428C5
:1038B00006D1FFE71099022081F83F0007902CE025
:1038C0000F98082806D1FFE71099022081F84000E0
:1038D00006901FE00F980C2806D1FFE710990220F0
:1038E00081F84100059012E00F98102806D1FFE7FB
:1038F0001099022081F84200049005E010990220FE
:1039000081F843000490FFE704980590FFE70598CD
:103910000690FFE706980790FFE70798FFE70F98E4
:1039200003900C2825D80399DFE801F0072323230F
:103930000E232323152323231C0010980168C86835
:1039400040F00200C86018E010980168C86840F0B4
:103950000400C86011E010980168C86840F00800D1
:10396000C8600AE010980168C86840F01000C8609C
:1039700003E001208DF83B00FFE79DF83B000028A5
:1039800040F09F80FFE7109800680F990122019294
:1039900002F0D6FF01981099096842F60042C4F27D
:1039A0000102914202902DD0FFE71098016801209A
:1039B00043F20042C4F201029142029022D0FFE79A
:1039C00010980168012044F20002C4F20102914201
:1039D000029017D0FFE710980168012044F20042DE
:1039E000C4F20102914202900CD0FFE710980068E7
:1039F0004BF60001CBF6FE710844B0FA80F04009A6
:103A00000290FFE70298C00738B1FFE710980168FD
:103A1000486C40F400404864FFE71098006842F6A4
:103A20000041C4F2010188422AD0FFE710980068E3
:103A3000B0F1804F24D0FFE71098006840F20041B9
:103A4000C4F2000188421BD0FFE71098006840F6DE
:103A50000001C4F20001884212D0FFE7109800680C
:103A600043F20041C4F20101884209D0FFE71098F7
:103A7000006844F20001C4F20101884219D1FFE755
:103A80001098006880680721C0F2010108400D907D
:103A90000D9806280CD0FFE70D98B0F5803F07D0B1
:103AA000FFE710980168086840F001000860FFE730
:103AB00006E010980168086840F001000860FFE720
:103AC000FFE79DF83B008DF84700FFE79DF84700B2
:103AD00012B080BD80B58AB00990089100208DF8A1
:103AE0001F00089806900C2825D80699DFE801F0F9
:103AF000072323230E232323152323231C000998A4
:103B00000168C86820F00200C86018E009980168E0
:103B1000C86820F00400C86011E009980168C8680E
:103B200020F00800C8600AE009980168C86820F021
:103B30001000C86003E001208DF81F00FFE79DF82A
:103B40001F00002840F0BA80FFE709980068089934
:103B5000002202F0F5FE09980168012042F60042B9
:103B6000C4F20102914205902DD0FFE70998016847
:103B7000012043F20042C4F201029142059022D09A
:103B8000FFE709980168012044F20002C4F2010233
:103B90009142059017D0FFE709980168012044F28F
:103BA0000042C4F20102914205900CD0FFE709984F
:103BB00000684BF60001CBF6FE710844B0FA80F0C5
:103BC00040090590FFE70598C007D8B1FFE7FFE778
:103BD00009980068006A41F21111084210D1FFE70C
:103BE00009980068006A44F24441084207D1FFE79F
:103BF00009980168486C20F400404864FFE7FFE73B
:103C0000FFE7FFE7FFE709980068006A41F211113A
:103C1000084210D1FFE709980068006A44F2444165
:103C2000084207D1FFE709980168086820F0010001
:103C30000860FFE7FFE7FFE7089828B9FFE7099961
:103C4000012081F83E0038E00898042806D1FFE7FB
:103C50000999012081F83F0004902CE00898082879
:103C600006D1FFE70999012081F8400003901FE089
:103C700008980C2806D1FFE70999012081F8410036
:103C8000029012E00898102806D1FFE70999012058
:103C900081F84200019005E00999012081F8430074
:103CA0000190FFE701980290FFE702980390FFE779
:103CB00003980490FFE70498FFE7FFE79DF81F00D3
:103CC0000AB080BD80B582B001900198006841F2D1
:103CD0000041C4F2000188423BD1FFE700F06EF8DA
:103CE00040F27C11C2F20001086000F06BF940F272
:103CF0008411C2F20001086000F0E6F940F2881178
:103D0000C2F20001086000F0DBF840F28011C2F25C
:103D10000001086002F0EEF801F030F901F028FA35
:103D200001F088FB01F0C8FD40F2F810C2F200007B
:103D3000006801280CD1FFE740F21021C2F2000117
:103D40000020086040F2F811C2F200010860FFE7AD
:103D5000FFE740F21020C2F200000068012814D1F1
:103D6000FFE70198006841F20001C4F200018842B7
:103D70000AD1FFE740F2C830C2F200000021FFF78D
:103D800041FD02F049F9FFE70FE040F21020C2F2D6
:103D90000000006840B9FFE740F2C830C2F20000FE
:103DA0000021FFF797FEFFE7FFE702B080BD0000AC
:103DB00081B0009001B07047FFE7FEE782B00020BD
:103DC000019040F28C10C2F20000006800900328BD
:103DD00072D80099DFE801F002132C5D1020C4F6C0
:103DE00000000068C005002807D4FFE740F28C11EE
:103DF000C2F200010120086000E0FFE75CE0102053
:103E0000C4F600000068C005002809D4FFE740F2AE
:103E10008C11C2F20001022008600120019006E02E
:103E200040F28C11C2F2000100200860FFE743E07D
:103E30001020C4F600000068C00500281CD4FFE76D
:103E400040F29010C2F20000016801310160006888
:103E5000B0F57A7F0FDBFFE740F29011C2F200016C
:103E60000020086040F28C11C2F2000103200860BB
:103E700002200190FFE70BE040F29011C2F2000136
:103E80000020086040F28C11C2F200010860FFE7D8
:103E900012E01020C4F600000068C005002803D41A
:103EA000FFE70220019006E040F28C11C2F200010F
:103EB00000200860FFE7FFE7019802B070470000AC
:103EC00082B00020019040F29410C2F2000000681D
:103ED0000090032872D80099DFE801F002132C5DEE
:103EE0001020C4F6000000680005002807D4FFE792
:103EF00040F29411C2F200010120086000E0FFE7E7
:103F00005CE01020C4F6000000680005002809D419
:103F1000FFE740F29411C2F2000102200860012084
:103F2000019006E040F29411C2F200010020086006
:103F3000FFE743E01020C4F60000006800050028F9
:103F40001CD4FFE740F29810C2F200000168013172
:103F500001600068B0F57A7F0FDBFFE740F298114F
:103F6000C2F200010020086040F29411C2F2000188
:103F70000320086002200190FFE70BE040F2981157
:103F8000C2F200010020086040F29411C2F2000168
:103F90000860FFE712E01020C4F60000006800058A
:103FA000002803D4FFE70220019006E040F29411BC
:103FB000C2F2000100200860FFE7FFE7019802B0AD
:103FC0007047000082B00020019040F29C10C2F2C5
:103FD000000000680090032872D80099DFE801F023
:103FE00002132C5D1020C4F6000000688005002834
:103FF00007D4FFE740F29C11C2F2000101200860E3
:1040000000E0FFE75CE01020C4F6000000688005D7
:10401000002809D4FFE740F29C11C2F200010220FF
:1040200008600120019006E040F29C11C2F20001FC
:1040300000200860FFE743E01020C4F6000000689D
:10404000800500281CD4FFE740F2A010C2F2000057
:104050000168013101600068B0F57A7F0FDBFFE78E
:1040600040F2A011C2F200010020086040F29C1151
:10407000C2F200010320086002200190FFE70BE07C
:1040800040F2A011C2F200010020086040F29C1131
:10409000C2F200010860FFE712E01020C4F6000041
:1040A00000688005002803D4FFE70220019006E0A5
:1040B00040F29C11C2F2000100200860FFE7FFE718
:1040C000019802B07047000082B00020019040F2D9
:1040D000A410C2F2000000680090032872D8009972
:1040E000DFE801F002132C5D1020C4F60000006828
:1040F0004005002807D4FFE740F2A411C2F20001F6
:104100000120086000E0FFE75CE01020C4F600003A
:1041100000684005002809D4FFE740F2A411C2F26C
:104120000001022008600120019006E040F2A41185
:10413000C2F2000100200860FFE743E01020C4F64F
:1041400000000068400500281CD4FFE740F2A810DA
:10415000C2F200000168013101600068B0F57A7FA9
:104160000FDBFFE740F2A811C2F200010020086057
:1041700040F2A411C2F20001032008600220019065
:10418000FFE70BE040F2A811C2F200010020086036
:1041900040F2A411C2F200010860FFE712E0102013
:1041A000C4F6000000684005002803D4FFE70220A1
:1041B000019006E040F2A411C2F200010020086064
:1041C000FFE7FFE7019802B07047000080B582B0BA
:1041D000ADF80600ADF80410ADF80220ADF80030DF
:1041E0002A2000F04FFCBDF80600143080B200F029
:1041F00031FCBDF80200143080B200F02BFC2B2003
:1042000000F040FCBDF8040000F024FCBDF8000004
:1042100000F020FC2C2000F035FC02B080BD000036
:1042200080B590B00F900E910D928DED0C0A0B930E
:104230009DED0C0A9FED401A80EE010A10EE100A67
:1042400004F02AFA41EC100B51EC100B9FED380BE7
:1042500053EC102B04F028F841EC100B51EC100B30
:1042600003F092FD06900D9803F0F3FF41EC100B64
:104270008DED020B069804F00FFA41EC100B03F0E1
:10428000F3F89DED021B51EC110B53EC102B04F0D5
:104290000BF841EC100B51EC100B03F075FD0A907C
:1042A0000D9803F0D6FF41EC100B8DED040B069832
:1042B00004F0F2F941EC100B03F072F89DED041BD1
:1042C00051EC110B53EC102B03F0EEFF41EC100BF3
:1042D00051EC100B03F058FD09909DED0F0AB8EE5C
:1042E000C00A9DED0A1A30EE010A8DED080A9DED17
:1042F0000E0AB8EEC00A9DED091A30EE410A8DEDA6
:10430000070A9DED080ABDEEC00A10EE102A9DEDC9
:10431000070ABDEEC00A10EE103ABDF82C0069463F
:1043200008608C20782100F009F810B080BD00BF33
:104330004AD8124DFB2109400000344380B58CB0AF
:1043400084460E98ADF82EC0ADF82C10ADF82A209A
:10435000ADF82830ADF82600002008900790BDF891
:104360002A00BDF82E10401A0690BDF82800BDF8AE
:104370002C10401A0590BDF82E000190BDF82C00BD
:1043800000900698012803DBFFE7012003900DE071
:10439000069818B9FFE70020039006E04FF0FF30C1
:1043A0000390069840420690FFE7FFE70598012832
:1043B00003DBFFE7012002900DE0059818B9FFE745
:1043C0000020029006E04FF0FF3002900598404236
:1043D0000590FFE7FFE706980599884203DDFFE7B0
:1043E0000698049002E005980490FFE70020ADF8DD
:1043F0002400FFE7BDF8240004990131884233DA34
:10440000FFE7BDF80400BDF80010BDF8262000F05D
:104410002DF80699089808440890059907980844CB
:10442000079008980499884209DDFFE704990898E5
:10443000401A08900399019808440190FFE70798F3
:104440000499884209DDFFE704990798401A07900C
:104450000299009808440090FFE7FFE7BDF82400A8
:104460000130ADF82400C5E70CB080BD80B582B046
:10447000ADF80600ADF80410ADF80220BDF8062036
:10448000BDF8043010461946FFF7A0FEBDF8020043
:1044900000F0E0FA02B080BD80B584B08446069892
:1044A000ADF80EC0ADF80C10ADF80A20ADF808302C
:1044B000ADF80600BDF80E00BDF80C10BDF80A20DE
:1044C000013ABDF80830013B92B29BB2FFF77EFE85
:1044D000BDF80C00ADF80400FFE7BDF80400BDF81E
:1044E000081088421EDAFFE7BDF80E00ADF80200A2
:1044F000FFE7BDF80200BDF80A1088420BDAFFE7BB
:10450000BDF8060000F0A6FAFFE7BDF80200013092
:10451000ADF80200EDE7FFE7BDF804000130ADF8AB
:104520000400DAE704B080BD80B592B04FF090404F
:104530000190042101220592FDF702F9019808215A
:10454000089100220492FDF7FBF864200290FCF72A
:1045500021FF0198059A0899FDF7F2F80298FCF7F7
:1045600019FF0298FCF716FF112000F08BFA782053
:10457000FCF710FF362000F085FA702000F078FA82
:104580003A2000F07FFA0520069000F071FAB22080
:1045900000F078FA0C20039000F06AFA039800F01B
:1045A00067FA049800F064FA33200B9000F060FA88
:1045B0000B9800F05DFAB72000F064FA352000F0A7
:1045C00057FABB2000F05EFA322000F051FAC22008
:1045D00000F058FA059800F04BFAC32000F052FAA8
:1045E00015200F9000F044FAC42000F04BFA202070
:1045F00000F03EFAC62000F045FA0F2000F038FA2D
:10460000D020079000F03EFAA42000F031FAA1205B
:1046100000F02EFAE02000F035FA079800F028FAB2
:10462000089800F025FA0E20099000F021FA0920E0
:104630000A9000F01DFA0A9800F01AFA069800F0A5
:1046400017FA3120109000F013FA0B9800F010FACE
:1046500048200C9000F00CFA17200D9000F008FA9A
:1046600014200E9000F004FA0F9800F001FA109850
:1046700000F0FEF93420119000F0FAF9E12000F08A
:1046800001FA079800F0F4F9089800F0F1F9099898
:1046900000F0EEF90A9800F0EBF90A9800F0E8F95A
:1046A0000F9800F0E5F9109800F0E2F90B9800F08F
:1046B000DFF90C9800F0DCF90D9800F0D9F90E98AC
:1046C00000F0D6F90F9800F0D3F9109800F0D0F967
:1046D000119800F0CDF9212000F0D4F9292000F044
:1046E000D1F912B080BD0000B0B588B094468E46B6
:1046F00004460E980D990C9AADF81E40ADF81CE0DA
:104700008DF81BC0ADF81830ADF816208DF81510D7
:104710008DF81400002001908DF81000BDF81E00E7
:10472000ADF80A009DF8150040088DF812009DF8BC
:104730001220D008012101EBD2015207002A18BF34
:1047400008469DF815104843ADF80C009DF81B0075
:1047500020388DF81B00BDF81E00BDF81C109DF818
:1047600012200244013A9DF815300B44013B92B2ED
:104770009BB2FFF72BFD0198ADF80E00FFE7BDF8E7
:104780000E00BDF80C10884280F2C180FFE79DF852
:1047900015000C2810D1FFE79DF81B0000EB40012D
:1047A00048F6D800C0F6000000EB8100BDF80E10FE
:1047B000405C8DF813003EE09DF8150010280ED1E6
:1047C000FFE79DF81B1048F64C50C0F6000000EBC8
:1047D0000110BDF80E10405C8DF813002AE09DF822
:1047E0001500182810D1FFE79DF81B0000EB4001D1
:1047F00049F23C30C0F6000000EB0110BDF80E108D
:10480000405C8DF8130014E09DF8150020280ED1AF
:10481000FFE79DF81B104AF20C50C0F6000000EBB9
:104820008110BDF80E10405C8DF8130000E06EE0C2
:10483000FFE7FFE7FFE700208DF81100FFE79DF895
:10484000110007285CDCFFE79DF8140030BBFFE790
:104850009DF813009DF81110C840C00728B1FFE76C
:10486000BDF8180000F0F6F804E0BDF8160000F0FE
:10487000F1F8FFE79DF8100001308DF810009DF869
:1048800010209DF81210B2FBF1F000FB112020B9AE
:10489000FFE700208DF8100032E02AE09DF81300B9
:1048A0009DF81110C840C00748B1FFE7BDF81E00D1
:1048B000BDF81C10BDF81820FFF7D8FDFFE7BDF8C4
:1048C0001E000130ADF81E00BDF81E00BDF80A1034
:1048D000401A9DF8121088420AD1FFE7BDF80A007D
:1048E000ADF81E00BDF81C000130ADF81C0007E05B
:1048F000FFE7FFE79DF8110001308DF811009EE7FA
:10490000FFE7BDF80E000130ADF80E0037E708B044
:10491000B0BD0000B0B58AB094468E4604461098EB
:104920000F990E9AADF82640ADF824E0ADF822C0FC
:104930008DF82130ADF81E20ADF81C108DF81B004D
:1049400000208DF818009DF81B1049088DF81710ED
:104950008DF81A00FFE79DF81A009DF82110884293
:1049600075DAFFE7BDF8220004909DF821109DF84C
:104970001A00C0430844C1B20A2002F0E1FC01461B
:104980000498B0FBF1F049F69A11C1F69911A0FB19
:10499000012101EB8101A0EB41008DF819009DF888
:1049A000180070BBFFE79DF81A009DF8211001392F
:1049B000884226DAFFE79DF81900E8B9FFE7BDF85D
:1049C00026209DF81A009DF8171010FB0120BDF855
:1049D0002410BDF81E30BDF81C209DF81BE0EC46ED
:1049E0000024CCF80840CCF804E0CCF8002080B2D9
:1049F0002022FFF779FE24E001208DF81800FFE760
:104A0000FFE7BDF826209DF81A009DF8171010FB4F
:104A10000120BDF824109DF819203032BDF81E3059
:104A2000BDF81CC09DF81B40EE460025CEF808508E
:104A3000CEF80440CEF800C080B2D2B2FFF754FEE8
:104A4000FFE79DF81A0001308DF81A0083E70AB0DD
:104A5000B0BD000080B582B0ADF806009DF807003B
:104A600000F028F89DF8060000F024F802B080BDA0
:104A700080B582B08DF807009DF8070000F01AF8A5
:104A800002B080BD80B584B08DF80F004FF090402B
:104A90000190402102910022FCF752FE9DF80F0088
:104AA00000F008F8019802990122FCF749FE04B0D1
:104AB00080BD000080B584B08DF80F004FF09040AD
:104AC0000290102101910022FCF73AFE9DF80F00A0
:104AD00001F080FB019902980122FCF731FE04B03D
:104AE00080BD000080B584B0FFE741F24800C4F209
:104AF0000200016841F004010160006800F0040058
:104B000003900398FFE7FFE741F24800C4F2020078
:104B1000016841F001010160006800F001000290AD
:104B20000298FFE70B20019000221146FCF7BCFE23
:104B30000198FCF7AFFE04B080BD000080B594B0D2
:104B4000002013901290119010900F90FFE741F207
:104B50004C00C4F20200016841F0200101600068CD
:104B600000F020000E900E98FFE7FFE741F24C00A6
:104B7000C4F20200016841F004010160006800F025
:104B800004000D900D98FFE7FFE741F24C00C4F2DE
:104B90000200016841F001010160006800F00100BD
:104BA0000C900C98FFE7FFE741F24C00C4F20200C2
:104BB000016841F002010160006800F002000B9002
:104BC0000B98FFE740F60000C4F6000002900F21AA
:104BD000019100220892FCF7B3FD089A4FF0904033
:104BE000099006210391FCF7ABFD09985821049127
:104BF00001220692FCF7A4FD089A40F20040C4F698
:104C000000000790FF210591FCF79AFD019B029897
:104C1000069A08990F931092119112910FA90A9177
:104C2000FCF7DAFBDDF80CC0069B089A09980A9994
:104C3000CDF83CC0109311921292FCF7CDFBDDF839
:104C400010C0069B089A09980A99CDF83CC01093A9
:104C5000119202221292FCF7BFFBDDF814C0069BF2
:104C60000798089A0A99CDF83CC0109311921292B5
:104C7000FCF7B2FB089A09980A994FF470630F93F6
:104C800010921192FCF7A8FB14B080BD80B582B0E1
:104C900040F28020C2F20000019043F20001C4F211
:104CA000010101604FF482714160002282604FF483
:104CB000E061C160026142614FF4007181610821CD
:104CC000C1610262426282620723C362026341637E
:104CD000FDF7DCFC18B1FFE7FCF7FCF9FFE702B0D9
:104CE00080BD000080B582B040F2E420C2F2000036
:104CF000019044F20041C4F20101016000214160D1
:104D000081604FF6FF72C260016141618161FEF70F
:104D10000FF818B1FFE7FCF7DDF9FFE702B080BD3F
:104D200080B582B040F23030C2F20000019044F60B
:104D30000001C4F2010101600021416081604FF671
:104D4000FF72C260016141618161FDF7F1FF18B13D
:104D5000FFE7FCF7BFF9FFE702B080BD80B588B080
:104D60000021009107910691059104910391029110
:104D7000019140F27C30C2F200004FF080420260AC
:104D8000416081604FF0FF32C26001618161FDF7D7
:104D9000CFFF18B1FFE7FCF79DF9FFE74FF4805014
:104DA000049040F27C30C2F2000004A9FEF750F9F2
:104DB00018B1FFE7FCF78EF9FFE7002001900390A0
:104DC00040F27C30C2F2000001A9FDF70DFF18B1DE
:104DD000FFE7FCF77FF9FFE708B080BD80B590B032
:104DE000002101910F910E910D910C910B910A915F
:104DF00009910891079106910591049103910291FF
:104E000040F2C830C2F2000040F20042C4F2000298
:104E10000260A9224260816040F2E732C260016113
:104E20008161FDF785FF18B1FFE7FCF753F9FFE754
:104E30004FF480500C9040F2C830C2F200000CA930
:104E4000FEF706F918B1FFE7FCF744F9FFE740F277
:104E5000C830C2F20000FEF779FC18B1FFE7FCF79A
:104E600039F9FFE7002009900B9040F2C830C2F2F8
:104E7000000009A9FDF7B8FE18B1FFE7FCF72AF911
:104E8000FFE7602002904FF4FA7003900022049232
:104E9000069240F2C830C2F2000002A9FEF77EFB83
:104EA00018B1FFE7FCF716F9FFE740F2C830C2F28D
:104EB0000000FEF73BFB10B080BD000080B584B061
:104EC000002103910291019140F21440C2F20000CE
:104ED00041F20002C4F20002026044F26722426022
:104EE000816040F27122C2608161FDF721FF18B13B
:104EF000FFE7FCF7EFF8FFE700200190039040F296
:104F00001440C2F2000001A9FDF76EFE18B1FFE7E0
:104F1000FCF7E0F8FFE704B080BD000080B584B086
:104F2000002103910291019140F26040C2F2000021
:104F300041F20042C4F200020260A9224260816094
:104F400040F2E732C2608161FDF7F2FE18B1FFE77F
:104F5000FCF7C0F8FFE700200190039040F26040AA
:104F6000C2F2000001A9FDF73FFE18B1FFE7FCF710
:104F7000B1F8FFE704B080BDFFE7FEE780B540F27F
:104F8000AC10C2F200000068012840F0EF80FFE79B
:104F900040F2C040C2F20000016846F26762C6F209
:104FA000666251FB02FC4FEA9C0303EBDC7303EBEC
:104FB0008303A1EB430340F25C11C2F200010B70CA
:104FC000006850FB02F3980800EBD370487040F281
:104FD000FC10C2F20000036853FB02FE4FEA9E0C75
:104FE0000CEBDE7C0CEB8C0CA3EB4C038B700068A1
:104FF00050FB02F2900800EBD270C87040F2D04033
:10500000C2F20000006838B9FFE740F2D841C2F2AE
:1050100000010C2008600AE040F2D040C2F200001B
:10502000006840F2D841C2F200010860FFE740F298
:10503000D840C2F20000016846F26762C6F26662BA
:1050400051FB02FC4FEAAC0303EBDC7303EB83037D
:10505000A1EB430340F25C11C2F200010B71006846
:1050600050FB02F2900800EBD270487140F2A400AD
:10507000C2F20000006803386FF00201084217D145
:10508000FFE740F2A400C2F20000016840F25C10A9
:10509000C2F20000401AC17940F20400C2F20000DE
:1050A000405C803040F21441C4F60001086029E001
:1050B00040F2A400C2F200000168881F20F0010045
:1050C000B0FA80F04009042908BF0120022908BF76
:1050D0000120B0B1FFE740F2A400C2F20000016875
:1050E00040F25C10C2F20000401AC17940F20400A4
:1050F000C2F20000405C40F21441C4F600010860B6
:10510000FFE7FFE740F2A400C2F20000016840F6AA
:105110001402C4F6000211600168013901600068E0
:1051200018BBFFE740F61401C4F600010020086038
:1051300040F21420C2F200000068012807D1FFE706
:1051400040F21441C4F60001F720086006E040F286
:105150001441C4F60001F3200860FFE740F2A40107
:10516000C2F2000107200860FFE7FFE780BD0000F2
:1051700080B540F2B010C2F200000068012840F093
:10518000D280FFE7FEF71AFE014640F27C10C2F221
:10519000000001600068012808D1FFE740F25811C3
:1051A000C2F200010868013008600FE040F27C1094
:1051B000C2F200000068022807D1FFE740F2581150
:1051C000C2F2000100200860FFE7FFE740F27C1117
:1051D000C2F200010020086040F25810C2F2000044
:1051E000016846F26763C6F2666351FB03FC4FEA4F
:1051F0009C0202EBDC7202EB8202A1EB420240F263
:105200006411C2F200010A70026852FB03FC4FEA0B
:10521000AC0202EBDC7252FB03FC4FEA9C0303EB93
:10522000DC7303EB8303A2EB43024A70026848F28B
:105230001F53C5F2EB1352FB03F35A0902EBD3726F
:105240008A7040F2A802C2F200021368C91ACB7930
:1052500040F20401C2F20001C95C40F21443C4F6FA
:1052600000031960116840F61403C4F600031960C6
:105270001168013911600068092810DCFFE740F26D
:10528000A800C2F200000068062807DCFFE740F231
:10529000A801C2F2000107200860FFE742E040F2E7
:1052A0005810C2F2000000680A2818DBFFE740F23D
:1052B0005810C2F200000068632810DCFFE740F2DB
:1052C000A800C2F200000068052807DCFFE740F2F2
:1052D000A801C2F2000107200860FFE721E040F2C8
:1052E0005810C2F200000068642819DBFFE740F2A2
:1052F0005810C2F200000068B0F57A7F10DAFFE7BC
:1053000040F2A800C2F200000068042807DCFFE7B2
:1053100040F2A801C2F2000107200860FFE7FFE7A2
:10532000FFE7FFE7FFE780BD40F20420C2F2000084
:10533000006801287DD1FFE740F20920C2F2000099
:10534000007801280ED1FFE740F20921C2F20001E6
:105350000020087040F21C21C2F2000108680130F0
:105360000860FFE740F21C20C2F2000000686428D9
:105370000ED1FFE740F21C21C2F2000100200860BC
:1053800040F2C441C2F20001086801300860FFE742
:1053900040F2C440C2F2000000683C280ED1FFE792
:1053A00040F20021C2F2000108680130086040F2BA
:1053B000C441C2F2000100200860FFE740F2002073
:1053C000C2F2000000683C280ED1FFE740F2002145
:1053D000C2F200010020086040F2D441C2F2000194
:1053E000086801300860FFE740F2D440C2F20000D4
:1053F000006864281CD1FFE740F2D441C2F20001EA
:105400000020086040F20021C2F20001086040F272
:10541000C441C2F20001086040F21C21C2F2000146
:10542000086040F20421C2F2000102200860FFE798
:10543000FFE7704780B582B040F2B410C2F20000BE
:105440000068012840F0D381FFE7FEF7BBFD01466D
:1054500040F28410C2F200000160006801281FD1F0
:10546000FFE740F20420C2F2000000686FF0020182
:10547000084207D1FFE740F20421C2F200010120F7
:10548000086006E040F20421C2F20001002008603A
:10549000FFE740F28411C2F2000100200860FFE73C
:1054A00040F28410C2F20000006802280DD1FFE72C
:1054B00040F20421C2F200010220086040F284118F
:1054C000C2F2000100200860FFE740F20420C2F2AF
:1054D00000000068022816D1FFE740F2D441C2F272
:1054E00000010020086040F20021C2F200010860C3
:1054F00040F2C441C2F20001086040F21C21C2F235
:1055000000010860FFE740F21C20C2F200000168C1
:1055100046F26762C6F26662009251FB02FC4FEAF5
:10552000AC0303EBDC7303EB8303A1EB430340F217
:105530006C11C2F2000101910B70006850FB02F384
:10554000980800EBD370487040F2C440C2F20000EB
:10555000036853FB02FE4FEAAE0C0CEBDE7C0CEB57
:105560008C0CA3EB4C038B70006850FB02F3980883
:1055700000EBD370C87040F20020C2F20000036854
:1055800053FB02FE4FEAAE0C0CEBDE7C0CEB8C0CFA
:10559000A3EB4C030B71006850FB02F3980800EB7F
:1055A000D370487140F2D440C2F20000036853FB4C
:1055B00002FE4FEAAE0C0CEBDE7C0CEB8C0CA3EB8A
:1055C0004C038B71006850FB02F2900800EBD27024
:1055D000C87140F2AC00C2F200000168481E20F021
:1055E0000200B0FA80F04009052908BF0120B8B1D7
:1055F000FFE740F2AC00C2F20000016840F26C101C
:10560000C2F20000401AC17940F20400C2F2000068
:10561000405C803040F21441C4F60001086015E09F
:1056200040F2AC00C2F20000016840F26C10C2F21D
:105630000000401AC17940F20400C2F20000405C50
:1056400040F21441C4F600010860FFE740F2AC00EC
:10565000C2F20000016840F61402C4F600021160B4
:105660000168013901600068B0F1FF3F07DCFFE726
:1056700040F2AC01C2F2000107200860FFE740F2EF
:10568000D440C2F200000068F8B9FFE740F2002001
:10569000C2F200000068C0B9FFE740F2C440C2F2A5
:1056A00000000068092810DCFFE740F2AC00C2F2FD
:1056B00000000068042807DCFFE740F2AC01C2F2FA
:1056C000000107200860FFE790E040F2D440C2F2FA
:1056D00000000068F8B9FFE740F20020C2F20000C5
:1056E0000068C0B9FFE740F2C440C2F200000068A1
:1056F0000A2810DBFFE740F2AC00C2F200000068AD
:10570000032807DCFFE740F2AC01C2F200010720EA
:105710000860FFE769E040F2D440C2F20000006890
:10572000C0B9FFE740F20020C2F20000006809287B
:1057300010DCFFE740F2AC00C2F200000068022873
:1057400007DCFFE740F2AC01C2F20001072008606D
:10575000FFE749E040F2D440C2F200000068C0B95F
:10576000FFE740F20020C2F2000000680A2810DBC8
:10577000FFE740F2AC00C2F200000068012807DC3D
:10578000FFE740F2AC01C2F2000107200860FFE72A
:1057900029E040F2D440C2F200000068092810DC81
:1057A000FFE740F2AC00C2F200000068002807DC0E
:1057B000FFE740F2AC01C2F2000107200860FFE7FA
:1057C00010E040F2AC00C2F200000068B0F1FF3F10
:1057D00007DCFFE740F2AC01C2F2000107200860DD
:1057E000FFE7FFE7FFE7FFE7FFE7FFE7FFE702B0BD
:1057F00080BD000040F2C840C2F2000000680128ED
:1058000059D1FFE740F20C20C2F2000000780128D5
:105810000ED1FFE740F20C21C2F200010020087017
:1058200040F2CC41C2F20001086801300860FFE795
:1058300040F2CC40C2F2000000680A280ED1FFE717
:1058400040F2CC41C2F200010020086040F2182171
:10585000C2F20001086801380860FFE740F2182032
:10586000C2F200000068013070B9FFE740F2182171
:10587000C2F200016320086040F2E801C2F20001B8
:10588000086801380860FFE740F2E800C2F2000053
:105890000068013070B9FFE740F21C01C2F200015C
:1058A00008680138086040F2E801C2F200013B20BC
:1058B0000860FFE7FFE7704780B582B040F2B8109C
:1058C000C2F200000068012840F01283FFE7FEF7F3
:1058D000FBFB014640F28810C2F200000160006844
:1058E000022837D1FFE740F21C01C2F20001052077
:1058F000086040F2E801C2F200010A20086040F2AC
:10590000B841C2F2000100200190086040F2182165
:10591000C2F20001086040F2BC11C2F2000108604E
:1059200040F2C011C2F20001086040F2C411C2F29C
:105930000001086040F2C811C2F20001086040F2A4
:10594000C841C2F20001086040F21021C2F2000119
:10595000086018E040F28810C2F2000000680128D8
:1059600010D1FFE740F2C840C2F20000006840B921
:10597000FFE740F2BC11C2F2000108680130086084
:10598000FFE7FFE7FFE740F2BC10C2F2000000684B
:1059900038B9FFE740F2C811C2F2000100200860E8
:1059A000FFE740F2BC10C2F200000068012812D1EB
:1059B000FFE740F2C411C2F200010120086040F28A
:1059C000C811C2F200010020086040F2C011C2F20A
:1059D00000010860FFE740F2BC10C2F2000000685E
:1059E00002280BD1FFE740F25810C2F20000006815
:1059F00040F2E801C2F200010860FFE740F2BC108B
:105A0000C2F200000068032812D1FFE740F2C01183
:105A1000C2F200010120086040F2C811C2F2000188
:105A20000020086040F2C411C2F200010860FFE7E4
:105A300040F2BC10C2F20000006804280BD1FFE75E
:105A400040F25810C2F20000006840F21C01C2F29D
:105A500000010860FFE740F2BC10C2F200000068DD
:105A6000052812D1FFE740F2C411C2F20001002064
:105A7000086040F2C011C2F20001086040F2C81193
:105A8000C2F2000101200860FFE740F2BC10C2F240
:105A900000000068062812D1FFE740F2BC11C2F2F4
:105AA00000010020086040F2C811C2F20001086045
:105AB00040F2C841C2F2000101200860FFE740F255
:105AC000E800C2F200000068A0BBFFE740F21C0043
:105AD000C2F20000006868BBFFE740F21820C2F283
